:020000040800F2
:100000000000022099050008E1050008E10500084C
:10001000E1050008E1050008E10500080000000016
:10002000000000000000000000000000E1050008E2
:10003000E105000800000000E10500084D0200088D
:10004000E1050008E1050008E1050008E1050008F8
:10005000E1050008E1050008E1050008E1050008E8
:10006000E1050008E1050008E1050008E1050008D8
:10007000E1050008E1050008E1050008E1050008C8
:10008000E1050008E1050008E1050008E1050008B8
:10009000E1050008E1050008E1050008E1050008A8
:1000A000E1050008E1050008E1050008E105000898
:1000B000E1050008E1050008E1050008E105000888
:1000C000E1050008E1050008E1050008E105000878
:1000D000E1050008E1050008E1050008E105000868
:1000E000E1050008E1050008E1050008E105000858
:1000F000E1050008E1050008E1050008E105000848
:10010000E1050008E1050008E1050008E105000837
:10011000E1050008E1050008E1050008E105000827
:10012000E1050008E1050008E1050008E105000817
:10013000E10500080000000000000000E1050008E3
:10014000E1050008E1050008E1050008E1050008F7
:10015000E1050008E1050008E1050008E1050008E7
:10016000E1050008E1050008E1050008E1050008D7
:10017000E1050008E1050008E105000800000000B5
:1001800000000000E1050008000000000000000081
:10019000E10500080000000000000000E105000883
:1001A000000000000000000000000000E105000861
:1001B000E1050008E1050008E1050008E105000887
:0401C000E10500084D
:1001C4000348044B834202D0034B03B118477047E2
:1001D400000000200000002000000000054806493F
:1001E400091A891001EBD171491002D0034B03B1F4
:1001F40018477047000000200000002000000000A5
:1002040010B5064C237843B9FFF7DAFF044B13B15A
:100214000448AFF300800123237010BD00000020C8
:1002240000000000E405000808B5044B1BB10449B4
:100234000448AFF30080BDE80840CFE700000000A9
:1002440004000020E405000808B50821002000F09F
:1002540071F808BD08B500F079F9FEE770B489B00B
:1002640006466C46074D0FCD0FC495E80F0084E891
:100274000F0008AB03EB860656F8200C09B070BCDF
:10028400704700BFFC05000808B5072808D8DFE858
:1002940000F004080C1014181C20012000F056F87B
:1002A40008BD022000F052F8FAE7042000F04EF8EE
:1002B400F6E7082000F04AF8F2E7102000F046F8CC
:1002C400EEE7202000F042F8EAE7402000F03EF894
:1002D400E6E7802000F03AF8E2E710B582B002AB1E
:1002E40003E903009DF800402046FFF7CDFF2046B8
:1002F400FFF7B4FF02689DF801409DF8053003F054
:100304000F0359008C402243026042689DF802406A
:1003140004FA03F31343436083689DF803208A407F
:1003240013438360C3689DF804208A401343C36069
:1003340002B010BD10B50C46FFF790FF838A01216F
:10034400A140594089B2818210BD0000044B1B6852
:10035400034203D1024A136818431060704700BF78
:100364003038024010B586B001AB83E80700424B39
:1003740083221A601A6822F080721A603E4B1B684E
:1003840013F0007FFAD19DF80530012B68D03A4A6A
:1003940013689DF804100B431360374B1B6813F06C
:1003A400020FFAD0354A136843F0805313600320D8
:1003B40000F09CF8324B93E8030004908DF814107D
:1003C40006AB13E9030000F071F8052000F060F8B3
:1003D4002C4A0023136011689DF806009DF807302D
:1003E4009B0243EA00139DF8080043EA40330B43A1
:1003F40013602549254B0B6008689DF80D30C3F345
:100404004503BDF80C20C2F3080243EA82139DF8A9
:10041400092043EA02439DF80A20D40943EA84539D
:10042400C2F3C30443EA046302F0070243EA02731B
:1004340003430B60104A136843F0807313600E4B40
:100444001B6813F0007FFAD00E4A136843F00203CE
:1004540013600C4B1B6813F0080FFAD006B010BDE4
:1004640005490A6842EA03430B60034B1B6813F413
:10047400003FFAD096E700BF0038024040380240FF
:100484001C060008083802400438024010300024DA
:100494000F2806D8044B1A68C0B210431860012014
:1004A40070474FF0FF307047003C024082B002AB0F
:1004B40003E903000C490A689DF800009DF8013027
:1004C4005B0243EA00239DF8020043EA80239DF87F
:1004D400030043EAC0239DF8040043EA00331343B6
:1004E4000B6002B0704700BF003C0240024A136830
:1004F40043EA80301060704700700040114B1A606E
:10050400043300221A6060B90F4A136843F00303EE
:10051400136002290FD00C4A136823F004031360FC
:100524007047094B1A6842F001021A601A6822F0F7
:1005340002021A60EDE7044A136843F004031360EF
:10054400704700BF14E000E010E000E010B586B092
:100554000E4C03AB94E8070003C31A8006AB13E9FF
:100564000700FFF7FFFE0C3494E803000190ADF898
:10057400081001AB93E80300FFF7AFFE044A022121
:100584000020FFF7BBFF06B010BD00BF2406000823
:1005940020BF0200DFF82CD00B480C490C4A002382
:1005A40002E0D458C4500433C4188C42F9D3094A25
:1005B400094C002301E013600432A242FBD3FFF78D
:1005C40049FE7047000002200000002000000020C7
:1005D40040060008000000201C000020FEE7000088
:1005E400F8B500BFF8BC08BC9E467047F8B500BF1C
:0805F400F8BC08BC9E467047EC
:1005FC00000002400004024000080240000C0240CF
:10060C00001002400014024000180240001C02407E
:10061C0001010100000000000100000504001200AF
:0C062C00B41000000001000200080000F3
:040638002D02000887
:04063C0005020008AB
:040000050800059951
:00000001FF
