:020000040800F2
:100000000000022075050008BD050008BD050008B8
:10001000BD050008BD050008BD0500080000000082
:10002000000000000000000000000000BD05000806
:10003000BD05000800000000BD050008BD05000862
:10004000BD050008BD050008BD050008BD05000888
:10005000BD050008BD050008BD050008BD05000878
:10006000BD050008BD050008BD050008BD05000868
:10007000BD050008BD050008BD050008BD05000858
:10008000BD050008BD050008BD050008BD05000848
:10009000BD050008BD050008BD050008BD05000838
:1000A000BD050008BD050008BD050008BD05000828
:1000B000BD050008BD050008BD050008BD05000818
:1000C000BD050008BD050008BD050008BD05000808
:1000D000BD050008BD050008BD050008BD050008F8
:1000E000BD050008BD050008BD050008BD050008E8
:1000F000BD050008BD050008BD050008BD050008D8
:10010000BD050008BD050008BD050008BD050008C7
:10011000BD050008BD050008BD050008BD050008B7
:10012000BD050008BD050008BD050008BD050008A7
:10013000BD0500080000000000000000BD0500082B
:10014000BD050008BD050008BD050008BD05000887
:10015000BD050008BD050008BD050008BD05000877
:10016000BD050008BD050008BD050008BD05000867
:10017000BD050008BD050008BD0500080000000021
:1001800000000000BD0500080000000000000000A5
:10019000BD0500080000000000000000BD050008CB
:1001A000000000000000000000000000BD05000885
:1001B000BD050008BD050008BD050008BD05000817
:0401C000BD05000871
:1001C4000348044B834202D0034B03B118477047E2
:1001D400000000200000002000000000054806493F
:1001E400091A891001EBD171491002D0034B03B1F4
:1001F40018477047000000200000002000000000A5
:1002040010B5064C237843B9FFF7DAFF044B13B15A
:100214000448AFF300800123237010BD00000020C8
:1002240000000000C005000808B5044B1BB10449D8
:100234000448AFF30080BDE80840CFE700000000A9
:1002440004000020C005000808B500F069F90FE0BB
:1002540001220721002000F07FF80023074A93427F
:1002640001D80133FAE700220721104600F074F8A0
:100274000023024A9342EBD80133FAE7FF083D001A
:1002840070B489B006466C46074D0FCD0FC495E88F
:100294000F0084E80F0008AB03EB860656F8200C29
:1002A40009B070BC704700BFD805000808B507281E
:1002B40008D8DFE800F004080C1014181C200120F2
:1002C40000F062F808BD022000F05EF8FAE70420AE
:1002D40000F05AF8F6E7082000F056F8F2E710208C
:1002E40000F052F8EEE7202000F04EF8EAE7402054
:1002F40000F04AF8E6E7802000F046F8E2E710B59F
:1003040082B002AB03E903009DF800402046FFF7EA
:10031400CDFF2046FFF7B4FF02689DF801409DF829
:10032400053003F00F0359008C4022430260026938
:100334009DF8024004FA03F313430361036A9DF832
:1003440003208A4013430362036B9DF804208A4010
:100354001343036302B010BD38B50D461446FFF7CE
:100364008FFF14B1012C08D038BD836910350122E8
:1003740002FA05F51D438561F6E78369012202FA55
:1003840005F51D438561EFE7024A136818431060C1
:10039400704700BF3038024010B586B001AB83E827
:1003A40007003F4A136823F0807313603C4B1B68BB
:1003B40013F0007FFAD19DF80530012B64D0384A40
:1003C40013689DF804100B431360354B1B6813F03E
:1003D400020FFAD0334A136843F0805313600320AA
:1003E40000F096F8304B93E8030004908DF8141055
:1003F40006AB13E9030000F06BF8052000F05AF88F
:100404002A490A689DF806009DF807309B0243EAD2
:1004140000139DF8080043EA403313430B6024485B
:1004240001689DF80D30C3F34503BDF80C20C2F3F9
:10043400080243EA82139DF8092043EA02439DF827
:100444000A20D40943EA8453C2F3C30443EA04638D
:1004540002F0070243EA02730B430360104A136875
:1004640043F0807313600E4B1B6813F0007FFAD0C7
:100474000E4A136843F0020313600C4B1B6813F01D
:10048400080FFAD006B010BD05490A6842EA0343D2
:100494000B60034B1B6813F4003FFAD09AE700BFCC
:1004A4000038024040380240F8050008083802408D
:1004B400043802400F2806D8044B1A68C0B210430F
:1004C4001860012070474FF0FF307047003C024035
:1004D40082B002AB03E903000C490A689DF80000EE
:1004E4009DF801305B0243EA00239DF8020043EAD1
:1004F40080239DF8030043EAC0239DF8040043EAE7
:10050400003313430B6002B0704700BF003C02404D
:10051400024A136843EA803010607047007000405C
:1005240010B586B0114C03AB94E8070003C31A80DE
:1005340006AB13E90700FFF72FFF0C3494E8030020
:100544000190ADF8081001AC94E80300FFF7D7FE62
:100554009DF80930072262F303038DF8093094E80B
:100564000300FFF7CCFE06B010BD00BF0006000874
:10057400DFF82CD00B480C490C4A002302E0D45875
:10058400C4500433C4188C42F9D3094A094C0023DB
:1005940001E013600432A242FBD3FFF755FE70471B
:1005A4000000022000000020000000201C060008BB
:1005B400000000201C000020FEE70000F8B500BF8A
:1005C400F8BC08BC9E467047F8B500BFF8BC08BC30
:0405D4009E46704788
:1005D800000002400004024000080240000C0240F3
:1005E800001002400014024000180240001C0240A3
:1005F80001010100000000000100000404001200D5
:0C06080050100000000100000005000080
:040614002D020008AB
:0406180005020008CF
:040000050800057575
:00000001FF
